{
  "_format": "hh-sol-artifact-1",
  "contractName": "Escrow",
  "sourceName": "contracts/Escrow.sol",
  "abi": [
    {
      "inputs": [
        {
          "internalType": "address",
          "name": "_arbiter",
          "type": "address"
        },
        {
          "internalType": "address",
          "name": "_beneficiary",
          "type": "address"
        }
      ],
      "stateMutability": "payable",
      "type": "constructor"
    },
    {
      "anonymous": false,
      "inputs": [
        {
          "indexed": false,
          "internalType": "uint256",
          "name": "amount",
          "type": "uint256"
        }
      ],
      "name": "Approved",
      "type": "event"
    },
    {
      "anonymous": false,
      "inputs": [
        {
          "indexed": false,
          "internalType": "uint256",
          "name": "deadline",
          "type": "uint256"
        }
      ],
      "name": "DeadlineSet",
      "type": "event"
    },
    {
      "anonymous": false,
      "inputs": [
        {
          "indexed": false,
          "internalType": "uint256",
          "name": "amount",
          "type": "uint256"
        }
      ],
      "name": "Refunded",
      "type": "event"
    },
    {
      "inputs": [],
      "name": "approve",
      "outputs": [],
      "stateMutability": "nonpayable",
      "type": "function"
    },
    {
      "inputs": [],
      "name": "arbiter",
      "outputs": [
        {
          "internalType": "address",
          "name": "",
          "type": "address"
        }
      ],
      "stateMutability": "view",
      "type": "function"
    },
    {
      "inputs": [],
      "name": "beneficiary",
      "outputs": [
        {
          "internalType": "address",
          "name": "",
          "type": "address"
        }
      ],
      "stateMutability": "view",
      "type": "function"
    },
    {
      "inputs": [],
      "name": "deadline",
      "outputs": [
        {
          "internalType": "uint256",
          "name": "",
          "type": "uint256"
        }
      ],
      "stateMutability": "view",
      "type": "function"
    },
    {
      "inputs": [],
      "name": "depositor",
      "outputs": [
        {
          "internalType": "address",
          "name": "",
          "type": "address"
        }
      ],
      "stateMutability": "view",
      "type": "function"
    },
    {
      "inputs": [],
      "name": "isApproved",
      "outputs": [
        {
          "internalType": "bool",
          "name": "",
          "type": "bool"
        }
      ],
      "stateMutability": "view",
      "type": "function"
    },
    {
      "inputs": [],
      "name": "isRefunded",
      "outputs": [
        {
          "internalType": "bool",
          "name": "",
          "type": "bool"
        }
      ],
      "stateMutability": "view",
      "type": "function"
    },
    {
      "inputs": [],
      "name": "refund",
      "outputs": [],
      "stateMutability": "nonpayable",
      "type": "function"
    }
  ],
  "bytecode": "0x608060405260405162000e8438038062000e848339818101604052810190620000299190620001ae565b816000806101000a81548173ffffffffffffffffffffffffffffffffffffffff021916908373ffffffffffffffffffffffffffffffffffffffff16021790555080600160006101000a81548173ffffffffffffffffffffffffffffffffffffffff021916908373ffffffffffffffffffffffffffffffffffffffff16021790555033600260006101000a81548173ffffffffffffffffffffffffffffffffffffffff021916908373ffffffffffffffffffffffffffffffffffffffff160217905550610e1042620000fb91906200022e565b6003819055507f337b880688eb06df8adb77036a6c8def1da2b520bc901c04b3a5a23f9ae130396003546040516200013491906200027a565b60405180910390a1505062000297565b600080fd5b600073ffffffffffffffffffffffffffffffffffffffff82169050919050565b6000620001768262000149565b9050919050565b620001888162000169565b81146200019457600080fd5b50565b600081519050620001a8816200017d565b92915050565b60008060408385031215620001c857620001c762000144565b5b6000620001d88582860162000197565b9250506020620001eb8582860162000197565b9150509250929050565b6000819050919050565b7f4e487b7100000000000000000000000000000000000000000000000000000000600052601160045260246000fd5b60006200023b82620001f5565b91506200024883620001f5565b9250828201905080821115620002635762000262620001ff565b5b92915050565b6200027481620001f5565b82525050565b600060208201905062000291600083018462000269565b92915050565b610bdd80620002a76000396000f3fe608060405234801561001057600080fd5b50600436106100885760003560e01c8063590e1ae31161005b578063590e1ae3146100f1578063779cd083146100fb578063c7c4ff4614610119578063fe25e00a1461013757610088565b806312424e3f1461008d57806328f371aa1461009757806329dcb0cf146100b557806338af3eed146100d3575b600080fd5b610095610155565b005b61009f6103f1565b6040516100ac9190610745565b60405180910390f35b6100bd610404565b6040516100ca9190610779565b60405180910390f35b6100db61040a565b6040516100e891906107d5565b60405180910390f35b6100f9610430565b005b6101036106cd565b6040516101109190610745565b60405180910390f35b6101216106e0565b60405161012e91906107d5565b60405180910390f35b61013f610706565b60405161014c91906107d5565b60405180910390f35b60035442111561019a576040517f08c379a00000000000000000000000000000000000000000000000000000000081526004016101919061084d565b60405180910390fd5b60008054906101000a900473ffffffffffffffffffffffffffffffffffffffff1673ffffffffffffffffffffffffffffffffffffffff163373ffffffffffffffffffffffffffffffffffffffff1614610228576040517f08c379a000000000000000000000000000000000000000000000000000000000815260040161021f906108b9565b60405180910390fd5b600260149054906101000a900460ff1615610278576040517f08c379a000000000000000000000000000000000000000000000000000000000815260040161026f90610925565b60405180910390fd5b600260159054906101000a900460ff16156102c8576040517f08c379a00000000000000000000000000000000000000000000000000000000081526004016102bf90610991565b60405180910390fd5b60004790506000600160009054906101000a900473ffffffffffffffffffffffffffffffffffffffff1673ffffffffffffffffffffffffffffffffffffffff1682604051610315906109e2565b60006040518083038185875af1925050503d8060008114610352576040519150601f19603f3d011682016040523d82523d6000602084013e610357565b606091505b505090508061039b576040517f08c379a000000000000000000000000000000000000000000000000000000000815260040161039290610a43565b60405180910390fd5b6001600260146101000a81548160ff0219169083151502179055507f3ad93af63cb7967b23e4fb500b7d7d28b07516325dcf341f88bebf959d82c1cb826040516103e59190610779565b60405180910390a15050565b600260149054906101000a900460ff1681565b60035481565b600160009054906101000a900473ffffffffffffffffffffffffffffffffffffffff1681565b600260009054906101000a900473ffffffffffffffffffffffffffffffffffffffff1673ffffffffffffffffffffffffffffffffffffffff163373ffffffffffffffffffffffffffffffffffffffff16146104c0576040517f08c379a00000000000000000000000000000000000000000000000000000000081526004016104b790610aaf565b60405180910390fd5b6003544211610504576040517f08c379a00000000000000000000000000000000000000000000000000000000081526004016104fb90610b1b565b60405180910390fd5b600260149054906101000a900460ff1615610554576040517f08c379a000000000000000000000000000000000000000000000000000000000815260040161054b90610925565b60405180910390fd5b600260159054906101000a900460ff16156105a4576040517f08c379a000000000000000000000000000000000000000000000000000000000815260040161059b90610991565b60405180910390fd5b60004790506000600260009054906101000a900473ffffffffffffffffffffffffffffffffffffffff1673ffffffffffffffffffffffffffffffffffffffff16826040516105f1906109e2565b60006040518083038185875af1925050503d806000811461062e576040519150601f19603f3d011682016040523d82523d6000602084013e610633565b606091505b5050905080610677576040517f08c379a000000000000000000000000000000000000000000000000000000000815260040161066e90610b87565b60405180910390fd5b6001600260156101000a81548160ff0219169083151502179055507f3d2a04f53164bedf9a8a46353305d6b2d2261410406df3b41f99ce6489dc003c826040516106c19190610779565b60405180910390a15050565b600260159054906101000a900460ff1681565b600260009054906101000a900473ffffffffffffffffffffffffffffffffffffffff1681565b60008054906101000a900473ffffffffffffffffffffffffffffffffffffffff1681565b60008115159050919050565b61073f8161072a565b82525050565b600060208201905061075a6000830184610736565b92915050565b6000819050919050565b61077381610760565b82525050565b600060208201905061078e600083018461076a565b92915050565b600073ffffffffffffffffffffffffffffffffffffffff82169050919050565b60006107bf82610794565b9050919050565b6107cf816107b4565b82525050565b60006020820190506107ea60008301846107c6565b92915050565b600082825260208201905092915050565b7f446561646c696e65207061737365640000000000000000000000000000000000600082015250565b6000610837600f836107f0565b915061084282610801565b602082019050919050565b600060208201905081810360008301526108668161082a565b9050919050565b7f4f6e6c7920617262697465722063616e20617070726f76650000000000000000600082015250565b60006108a36018836107f0565b91506108ae8261086d565b602082019050919050565b600060208201905081810360008301526108d281610896565b9050919050565b7f416c726561647920617070726f76656400000000000000000000000000000000600082015250565b600061090f6010836107f0565b915061091a826108d9565b602082019050919050565b6000602082019050818103600083015261093e81610902565b9050919050565b7f416c726561647920726566756e64656400000000000000000000000000000000600082015250565b600061097b6010836107f0565b915061098682610945565b602082019050919050565b600060208201905081810360008301526109aa8161096e565b9050919050565b600081905092915050565b50565b60006109cc6000836109b1565b91506109d7826109bc565b600082019050919050565b60006109ed826109bf565b9150819050919050565b7f4661696c656420746f2073656e64204574686572000000000000000000000000600082015250565b6000610a2d6014836107f0565b9150610a38826109f7565b602082019050919050565b60006020820190508181036000830152610a5c81610a20565b9050919050565b7f4f6e6c79206465706f7369746f722063616e20726566756e6400000000000000600082015250565b6000610a996019836107f0565b9150610aa482610a63565b602082019050919050565b60006020820190508181036000830152610ac881610a8c565b9050919050565b7f446561646c696e65206e6f742070617373656400000000000000000000000000600082015250565b6000610b056013836107f0565b9150610b1082610acf565b602082019050919050565b60006020820190508181036000830152610b3481610af8565b9050919050565b7f4661696c656420746f2073656e6420726566756e640000000000000000000000600082015250565b6000610b716015836107f0565b9150610b7c82610b3b565b602082019050919050565b60006020820190508181036000830152610ba081610b64565b905091905056fea26469706673582212206f20a965eee0c549390cb68b83e3eaea3112084b145ca7b3019c2d34d8951e9f64736f6c63430008110033",
  "linkReferences": {},
  "deployedLinkReferences": {}
}